:020000040800F2
:100000000007002001010008AD1C00085B18000873
:10001000211B0008AD0100081925000800000000A0
:10002000000000000000000000000000411F000868
:10003000AF01000800000000AF1C0008A91F000865
:100040001B0100081B0100081B0100081B01000820
:100050001B0100081B0100081B0100081B01000810
:100060001B010008B1010008B70100081B010008CE
:100070001B0100081B0100081B0100081B010008F0
:100080001B0100081B0100081B0100081B010008E0
:100090001B0100081B0100081B0100081B010008D0
:1000A0001B010008192000081B0100080D20000892
:1000B000252000081B010008312000081B01000852
:1000C0001B0100081B0100081B0100081B010008A0
:1000D0001B010008012500080D2500081B01000870
:1000E0001B0100081B0100081B010008DFF80CD0F1
:1000F00000F04AF800480047692500080007002082
:100100000648804706480047FEE7FEE7FEE7FEE7B1
:10011000FEE7FEE7FEE7FEE7FEE7FEE70B2000084E
:10012000ED00000840EA01039B0703D009E008C97D
:10013000121F08C0042AFAD203E011F8013B00F8AC
:10014000013B521EF9D27047D2B201E000F8012BF8
:10015000491EFBD270470022F6E710B513460A4647
:1001600004461946FFF7F0FF204610BD30B504469F
:100170000020034600E05B1C934203D2E05CCD5CB0
:10018000401BF8D030BD0000064C074D06E0E0688B
:1001900040F0010394E8070098471034AC42F6D3CE
:1001A000FFF7A8FF5C2900087C290008FEE77047DC
:1001B000082000F0A9B8102000F0A6B872B6FEE73B
:1001C00010B590F821100022022905D00421816386
:1001D00080F82020012010BD01680B6823F00E0379
:1001E0000B6001680B6823F001030B6090F840304E
:1001F000C46B012101FA03F3636080F8211080F8D9
:100200002020104610BD000010B590F821100024E9
:10021000022903D00421816301243DE001680A68BA
:1002200022F00E020A6001680A6822F001020A60E8
:100230001A4A0168914201D1012121E0174A143282
:10024000914201D110211BE0144A2832914201D180
:10025000891515E0114A3C32914201D189140FE011
:100260000E4A5032914202D14FF4803108E00B4ADD
:100270006432914202D14FF4801101E04FF080715D
:10028000064A083A5160012180F82110002180F8C7
:100290002010416B01B18847204610BD0800024084
:1002A00070B5044600F036F90546601C02D00448DB
:1002B0000078044400F02EF9401BA042FAD370BD30
:1002C0002C00002070B500250D4A0E4C08280AD0DD
:1002D000102807D11021104600F012F970B100204B
:1002E0006071E57170BD0821104600F009F918B180
:1002F00000202071A57170BD0120FAE70120EFE711
:10030000000C01401C000020044910B50A6802429C
:1003100002D00860FFF7D6FF10BD000014040140B2
:100320002DE9F84FDFF8B8910024A9F1040B23461A
:100330000F2709F1040AABF1040EC9E00125A5401D
:100340002A40AA427DD1674ED1F804C0ACEB060822
:10035000B44532D014DCBCF1030F3AD009DCBCF157
:10036000000F2AD0BCF1010F1CD0BCF1020F31D11B
:100370001DE0BCF1110F17D0BCF1120F2AD119E00A
:10038000B8F5881F19D006DCB8F5803F15D0B8F550
:10039000801F1FD111E0B8F5001F0ED0B8F5041F63
:1003A00018D10AE0CB6815E0CB681B1D12E0CB68C2
:1003B00008330FE0CB680C330CE08B682BB1012BBA
:1003C0004FF0080303D0456104E0042302E0056117
:1003D00000E00023FF2A01D8064601E000F10406F0
:1003E0004FEA840501D9A5F12005D6F8008007FA67
:1003F00005FC28EA0C0803FA05F548EA0508C6F8E2
:1004000000804D68ED0062D5374DAE6946F00106BB
:10041000AE61AD6924F0030605F001050095334D8A
:1004200006EB050CDCF80850A607360F07FA06F8AD
:1004300025EA0805DFF8B880404503D14FF00008F1
:1004400017E044E0DFF8AC80404502D14FF00108EE
:100450000FE0DFF8A480404502D14FF0020808E029
:10046000DFF89880404502D14FF0030801E04FF0DB
:10047000040808FA06F848EA0508CCF808804D6830
:10048000D9F80060ED024D4601D5164300E09643D1
:100490002E604D68DAF80060AD02554601D516436E
:1004A00000E096432E604D68DBF80060AD035D46CA
:1004B00001D5164300E096432E604D68DEF80060DB
:1004C000ED03754601D5164300E096432E60641C8B
:1004D0000D682A46E5407FF431AFBDE8F88F000093
:1004E000080401400000111000100240000001400B
:1004F00000080140000C01400010014000140140C0
:100500008068084000D0012070470AB1016170473F
:100510000904FBE701488068704700002C000020B8
:100520000248816802781144816070472C000020E5
:10053000074810B5016841F010010160032000F088
:1005400075F80F2000F006F800F024F8002010BD28
:100550000020024070B50D4D04464FF47A712878A2
:10056000B1FBF0F00A490968B1FBF0F000F0DCFAE9
:1005700048B9102C07D200222146501E00F036F850
:1005800000206C6070BD012070BD00002C000020B8
:10059000380000200C4808B5816941F001018161F3
:1005A000816901F001010091C16941F08051C1618F
:1005B000C06900F0805000900448416821F0E0617B
:1005C00041F00071416008BD001002400000014090
:1005D000002809DB00F01F02012191404009800042
:1005E00000F1E020C0F8001170470000F0B40E4B9D
:1005F0001B680C46C3F30223C3F10705042D00D981
:100600000425191D072901D2002300E0DB1E012665
:1006100006FA05F1491E214099409E40761E16407B
:100620003143F0BC01F079BF0CED00E0064900F069
:10063000070208684FF6FF03184040EA0220034A09
:1006400010430860704700000CED00E00000FA0560
:100650002DE9F0470F46050061D0434E306800F0A9
:100660000700B84209D2306820F0070038433060F4
:10067000306800F00700B84251D128683B4C810730
:1006800012D5400703D5606840F4E06060602878C8
:10069000000703D5606840F4605060606068A96836
:1006A00020F0F000084360602878C00728D0686810
:1006B000012810D02168022810D0890700292EDADD
:1006C000616821F0030101436160FFF723FF804669
:1006D00041F288390DE021688903EFE78901EDE7F0
:1006E000FFF718FFA0EB0801494502D90320BDE838
:1006F000F0876068696800F00C00B0EB810FEFD103
:10070000306800F00700B8420BD9306820F00700CD
:1007100038433060306800F00700B84201D0012053
:10072000E5E72878400705D56068E96820F4E060CF
:10073000084360602878000706D56068296920F4BE
:10074000605040EAC100606000F038F86168084A13
:10075000C1F30311515CC8400649086006480068AF
:10076000FFF7F8FE0020C2E7002002400010024020
:1007700042290008380000203000002004480549C4
:1007800000684968044AC1F30221515CC8407047BF
:100790003800002000100240522900080448054992
:1007A00000684968044AC1F3C221515CC8407047DF
:1007B0003800002000100240522900080E4A5168FB
:1007C0000E4801F00C03042B11D0082B0FD10C485C
:1007D000C1F38343C903C05C0AD55168084AC1F319
:1007E0004041921E515C054A5043B0FBF1F0704706
:1007F00004494843704700000010024000127A008C
:100800003229000800093D002DE9F84F040070D09E
:100810002078C04DC00749D06868C0F38100012826
:1008200007D06868C0F38100022809D16868C00356
:1008300006D52868800339D560680028E7D035E000
:100840006068B0F5803F0BD010B1B0F5A02F11D08B
:10085000286820F480302860286820F4802002E096
:10086000286840F480302860606890B1FFF752FE3D
:1008700006460AE0286840F480202860F0E700BFC0
:10088000FFF748FE801B642873D828688003F7D5DB
:100890000CE0FFF73FFE064605E000BFFFF73AFE1B
:1008A000801B6428F0D828688003F7D420789A4EFB
:1008B00080074FF001094FF0000839D5686810F043
:1008C0000C0F07D06868C0F38100022809D168685E
:1008D000C00306D42868800714D52069012808D1F0
:1008E00010E02069B0B1C6F80090FFF713FE07468C
:1008F00005E00AE1FFF70EFEC01B0228C4D82868F5
:100900008007F7D52868616920F0F80040EAC10047
:1009100028600DE0C6F80080FFF7FCFD074604E004
:10092000FFF7F8FDC01B022823D828688007F7D4FA
:10093000207800072CD57948A169D9B1C0F800907A
:10094000FFF7E8FD074604E0FFF7E4FDC01B0228BF
:100950000FD8686A8007F7D571484FF4FA510068DC
:10096000B0FBF1F0009000BF0098411E0091FAD258
:100970000EE080E0C0F80080FFF7CCFD074604E001
:10098000FFF7C8FDC01B022875D8686A8007F7D436
:100990002078400760D5E8690027C00008D4E869DE
:1009A00040F08050E861E869012700F08050009035
:1009B0005C480168C90513D40168834641F480711D
:1009C0000160FFF7A7FD824606E000BFFFF7A2FD2A
:1009D000A0EB0A0064284ED8DBF80000C005F5D56E
:1009E000E06801280AD008B1052813D0286A20F051
:1009F00001002862286A20F0040002E0286A40F022
:100A000001002862E06841F2883B98B1FFF782FD5F
:100A100082460BE0286A40F004002862EEE700BF3F
:100A2000FFF778FDA0EB0A0159455AD8286A8007DC
:100A3000F6D50CE0FFF76EFD824605E0FFF76AFD94
:100A4000A0EB0A0159454CD8286A8007F6D41FB19B
:100A5000E86920F08050E861E06988B36968C1F313
:100A60008101022944D00228C6F8608004D0FFF733
:100A700051FD044638E034E0FFF74CFD074604E042
:100A8000FFF748FDC01B02282BD828688001F7D447
:100A9000206AB0F5803F05D16868A16820F4003075
:100AA00008436860D4E908010843696821F47411B7
:100AB00008436860C6F86090FFF72CFD044606E026
:100AC00025E000BFFFF726FD001B022809D8286893
:100AD0008001F7D51BE000BFFFF71CFD001B0228BB
:100AE00002D90320BDE8F88F28688001F4D40EE015
:100AF0000128F7D06868226A00F48031914204D15D
:100B0000616A00F47010884201D00120EAE70020F9
:100B1000E8E7000000100240000042428004424228
:100B2000380000200070004010B5401EB0F1807FFA
:100B300001D3012010BD4FF0E02460610F21601748
:100B400001F0EBFC0020A06107202061002010BD17
:100B50007047704710B590F83C20012A22D001223E
:100B600080F83C20CA688C6822F4407222434C68AA
:100B700022F4806222430C6822F4006222430C6952
:100B800022F4805222434C6922F400522243C96964
:100B9000002322F480420A4301684A6480F83C3012
:100BA000002010BD022010BD70B590F83C20012A35
:100BB00026D0012480F83C40022280F83D200368C2
:100BC0005A689D6822F070060A6832435A600D4BDD
:100BD00002689A4208D0B2F1804F05D00A4B9A427F
:100BE00002D00A4B9A4204D1496825F08003194388
:100BF000916080F83D40002180F83C10084670BDAF
:100C0000022070BD002C014000040040000800409C
:100C100010B5040003D094F83D0010B107E00120A6
:100C200010BD002084F83C00204600F01FF8022090
:100C300084F83D00211D206801F000FA012084F8AD
:100C4000460084F83E0084F83F0084F8400084F8B1
:100C5000410084F8420084F8430084F8440084F89A
:100C6000450084F83D00002010BD000008B5224A70
:100C700001682248914216D1816941F40061816185
:100C80008069002200F40060009011461920FFF7EF
:100C9000ADFC1920FFF79CFC002211461B20FFF73A
:100CA000A5FC1B2013E0B1F1804F14D0144A9142EF
:100CB00020D1C16941F00401C161C069002200F086
:100CC0000400009011461E20FFF790FC1E20BDE896
:100CD0000840FFF77DBCC16941F00101C161C069F5
:100CE000002200F00100009011461C20FFF77EFC5E
:100CF0001C20ECE708BD0000002C01400010024061
:100D00000008004090F83D10012901D001207047F3
:100D1000022180F83D100168CA6842F00102CA60F1
:100D200000680B49884208D0B0F1804F05D00949CE
:100D3000884202D00849884204D1816801F0070145
:100D4000062903D0016841F00101016000207047CD
:100D5000002C0140000400400008004070B504462B
:100D600090F83C000025012817D0012684F83C604B
:100D7000022084F83D002068826822F0770222F485
:100D80007F4282600868502838D00DDC20284FD080
:100D900005DC90B3102811D14AE0022070BD302844
:100DA00046D040280AD13BE060282FD070280DD0D3
:100DB000B0F5805F03D0B0F5005F12D0012584F854
:100DC0003D60002084F83C00284670BDCB68D1E926
:100DD0000121206801F07BF92068816841F07701EA
:100DE00009E0CB68D1E90121206801F070F92068A1
:100DF000816841F480418160E1E719E0CA6849688F
:100E0000206801F019FA5021206806E0CA68496894
:100E1000206801F022FA6021206801F062F9CEE733
:100E2000CA684968206801F007FA40212068F4E7A1
:100E3000226801461046F0E770472DE9F04104466C
:100E40000068C66805694FF00007A90713D5B10708
:100E500011D5F91E01610120207720688069800783
:100E6000204602D0FFF7E8FF04E000F0A5F8204696
:100E700000F037F92777680716D5700714D5216871
:100E80006FF004000861022020772068806910F468
:100E9000407F204602D0FFF7CFFF04E000F08CF83F
:100EA000204600F01EF92777280715D5300713D5FF
:100EB00021686FF008000861042020772068C0696D
:100EC0008007204602D0FFF7B7FF04E000F074F877
:100ED000204600F006F92777E80616D5F00614D567
:100EE00021686FF010000861082020772068C06931
:100EF00010F4407F204602D0FFF79EFF04E000F090
:100F00005BF8204600F0EDF82777E80708D0F007F7
:100F100006D021686FF001000861204600F068F9F2
:100F2000280608D5300606D521686FF080000861D4
:100F30002046FFF70DFE680608D5700606D5216825
:100F40006FF040000861204600F0CAF9A8060AD5F3
:100F5000B00608D521686FF0200008612046BDE882
:100F6000F041FFF7F6BDBDE8F081000000B585B0A7
:100F70000021009101910291039100680B49884280
:100F800012D10B48816941F0040181618069694691
:100F900000F0040004904FF40060009002200190E3
:100FA00003900448FFF7BCF905B000BD002C0140D8
:100FB0000010024000080140704770B5044690F8E8
:100FC0003C0000260D4601280FD0012084F83C008B
:100FD0006AB1042A1DD0082A2FD00C2A3FD001263E
:100FE000002084F83C00304670BD022070BD2068AF
:100FF00001F080F82068816941F008018161206872
:10100000816921F004018161206881692A691143A5
:1010100011E0206801F096F82068816941F40061D0
:1010200081612068816921F4806181612068816922
:101030002A6941EA02218161D2E7206801F0AEF815
:101040002068C16941F00801C1612068C16921F0CF
:101050000401C1612068C1692A69114311E0206857
:1010600001F0C8F82068C16941F40061C1612068DD
:10107000C16921F48061C1612068C1692A6941EABE
:101080000221C161ACE710B5040003D094F83D0023
:1010900010B107E0012010BD002084F83C0020467C
:1010A00000F01EF8022084F83D00211D206800F0A9
:1010B000C5FF012084F8460084F83E0084F83F0014
:1010C00084F8400084F8410084F8420084F843002A
:1010D00084F8440084F8450084F83D00002010BDE9
:1010E0007047704710B50446022249B104290ED05A
:1010F000082913D094F84100012816D0012010BD12
:1011000094F83E000128F9D184F83E200FE094F8CD
:101110003F000128F2D184F83F2008E094F8400015
:101120000128EBD184F8402001E084F8412001221D
:10113000206800F0BFFF0F492068884203D1426C4D
:1011400042F4004242642068884208D0B0F1804FE7
:1011500005D00949884202D00849884204D18168F3
:1011600001F00701062903D0016841F00101016087
:10117000002010BD002C0140000400400008004089
:1011800030B504460D460068002200F093FF174B6F
:1011900041F2111120688A10984209D1036A0B426A
:1011A00006D1036A134203D1436C23F40043436422
:1011B0002068036A0B4206D1016A114203D101681B
:1011C00021F00101016001203DB1042D08D0082D5E
:1011D00009D084F84100002030BD84F83E00FAE7D1
:1011E00084F83F00F7E784F84000F4E7002C014062
:1011F0002DE9F04700683149314F0025314E8842D2
:1012000014D1387800280FD0307800280CD02E4820
:101210000168491C016000682C490968884203D3B1
:1012200000F098FC35703D70BDE8F0872849884291
:10123000FAD1284CA079DFF8A080DFF8A09002282E
:1012400019D2A079401CA071A079022813D120796D
:10125000217A88420FD02072A070A07858B13878D7
:1012600048B9307838B198F8000020B900F072FC25
:101270003570A9F80050E0790228D5D2E079401CF9
:10128000E071E0790228CFD16079617A8842CBD0D1
:101290006072E070E0780028C6D038780028C3D1AA
:1012A00030780028C0D098F800000128BCD100F0A8
:1012B00051FC3570A9F80050B6E70000002C014041
:1012C00002000020000000200C0000200800002088
:1012D000000800401C000020010000200400002045
:1012E0007047704770470000F8B501680446086809
:1012F000CA684B6910F00F0F4FF0000559D003F08A
:10130000010602F49077374365D0C10705D0D105B7
:1013100003D5616C41F001016164410705D5D9072E
:1013200003D0616C41F002016164810705D5D907E2
:1013300003D0616C41F004016164010707D502F03C
:101340002001314303D0616C41F008016164616C9C
:1013500000293AD0800604D5900602D5204600F038
:10136000BDFF20684069616CC0F38010090700D49C
:1013700060B3204600F08BFF20684069400621D50D
:101380002068143050E8001F21F0400140E80012AE
:10139000002AF5D1E06BA8B16D494163E06BFEF71F
:1013A00033FF002811D0E06B416B01B0BDE8F04085
:1013B000084783060FD593060DD52046BDE8F840B3
:1013C00000F08CBF2046FFF78DFFF8BD2046FFF7E9
:1013D00089FF6564F8BD266B2023012E7CD1C606EB
:1013E0007AD5D60678D508684868009048694FF0E5
:1013F0000206400640D5E16B086840680004000C16
:10140000E8D0A28D8242E5D9E085886920282DD0D8
:1014100020680C3050E8001F21F4807140E8001271
:10142000002AF5D12068143050E8001F21F0010196
:1014300040E80012002AF5D12068143050E8001F5F
:1014400021F0400140E80012002AF5D184F8423032
:10145000256320680C3050E8001F21F0100140E89F
:101460000012002AF5D1E06BFEF7AAFE6663A08D9C
:10147000E18D401A81B22AE0A08DE18D401A81B23F
:10148000E08D0028A6D00029A4D022680C3252E8B2
:10149000000F20F4907042E80007002FF5D120687B
:1014A000143050E8002F22F0010240E80027002FFE
:1014B000F5D184F84230256320680C3050E8002FC5
:1014C00022F0100240E80023002BF5D1666320468D
:1014D000FFF707FFF8BDFFE705062BD5150629D551
:1014E00094F841002128F5D1A068B0F5805F01D1C2
:1014F0002069B0B1206A411C2162216800784860EF
:10150000E08C401E0004000CE084E3D12068C16838
:1015100021F08001C1602068C16841F04001C160D4
:10152000D8E7206A0088C0F308004860206A801C61
:101530002062E5E74006CDD55006CBD5CA682046E7
:1015400022F04002CA6084F8413000F085F9C1E71A
:101550007F22000870B5040004D094F841000025F3
:1015600010B106E0012070BD84F84050204600F024
:1015700023F8242084F841002068C16821F4005138
:10158000C160204600F00CFF2068016921F4904101
:1015900001612068416921F02A0141612068C16828
:1015A00041F40051C1606564202084F8410084F852
:1015B00042006563002070BD30B585B00024009402
:1015C000019402940394324D0368324802210322AD
:1015D000AB422ED1836943F480438361836903F472
:1015E00080430493836943F00803836180692A4D33
:1015F00000F0080004904020CDE900010392694604
:101600002846FEF78DFE8020CDE900046946284675
:101610000294FEF785FE2148416841F0E06141F007
:1016200004014160002211462520FEF7DFFF25203E
:1016300029E01B4DAB4228D1C36943F40033C36199
:10164000C36903F400330493836943F004038361A3
:101650008069144D00F0040004900420CDE90001DD
:10166000039269462846FEF75BFE0820CDE9000498
:10167000694628460294FEF753FE002211462620B2
:10168000FEF7B4FF2620FEF7A3FF05B030BD000033
:101690000038014000100240000C014000000140F1
:1016A000004400400008014090F84230202B01D057
:1016B0000220704721B11AB10023036300F0CCBEB1
:1016C00001207047F0B40068324988420DD1324899
:1016D000324A017832480388D1540188491CC9B282
:1016E000018001222C492F484BE02F4988424FD1DD
:1016F0002E4802260022837AC17AFE2B01D1FE29D0
:101700000DD081720778294C01230625A47B072F71
:1017100017D2DFE807F0080C10181B2439000670F8
:10172000C273817229E0FE2927D1037025E0FE29CA
:1017300007D1067021E08173C273032901D303210D
:1017400008E0027019E00173042103E04173032CE7
:1017500002D90521017010E0057043700DE0C37BD4
:10176000402B04D2124AD1545B1CC37300E00270B8
:10177000D9B2E41EA14200DB05700C4901220D48DC
:101780000B31F0BCFFF790BFFA29DAD14370D8E7EC
:10179000F0BC7047003801401600002055000020C2
:1017A0001800002070020020004400401C000020AF
:1017B00055010020B80200202DE9F843044690F8B6
:1017C0004100984616460D46202802D00220BDE86A
:1017D000F88385B17EB100206064212084F8410047
:1017E000FEF798FEA6848146E684A0682027B0F51F
:1017F000805F02D003E00120E9E7206910B12E46A6
:1018000000250EE000260CE08021204600F03FFE7F
:10181000A8B9C6B116F8010B21684860E08C401EDB
:10182000E084E08C4B464FF00002CDF800800028A9
:10183000EAD14FF04001204600F029FE40B184F883
:1018400041700320C3E735F8020BC0F30800E3E75B
:1018500084F841700020BAE77047FEE72DE9F043B5
:1018600085B000243C48009401940294039481695B
:1018700041F020018161816901F0200104918169B9
:1018800041F004018161816901F0040104918169E1
:1018900041F0080181618069DFF8C09000F0080024
:1018A000049000224DF220014846FEF72EFEDFF89C
:1018B000B08000224FF411414046FEF726FE4FF45F
:1018C000815001250226CDE90005CDE90246694691
:1018D0004846FEF725FD6803CDE900046946484601
:1018E0000294FEF71DFD4FF440400327CDE90005AB
:1018F000CDE9024769464846FEF712FD4FF488508D
:10190000CDE90005CDE9024769464046FEF708FDEE
:10191000E8038DE86100694640460396FEF700FD46
:10192000182000900F48CDE9010569464846FEF7AA
:10193000F7FC002211460920FEF758FE0920FEF7A9
:1019400047FE002211460A20FEF750FE0A20FEF74D
:101950003FFE05B0BDE8F08300100240000C0140DE
:10196000000801400000311010B596B000240F941B
:1019700010941194129413941C2108A81494FEF747
:10198000EAFB20216846FEF7E6FB2848264901606D
:101990004721C0E901144FF41C71C0E903144461EC
:1019A0008461FFF735F908B1FEF708FC4FF4805069
:1019B0000F900FA91D48FFF7D1F908B1FEF7FEFB04
:1019C0001A48FFF760FB08B1FEF7F8FB139413A960
:1019D00016481494FFF7E8F808B1FEF7EFFB602013
:1019E00008900A20CDE909040C940D940C2208A952
:1019F0000E480E94FFF7E1FA08B1FEF7DFFB009402
:101A00004FF40050CDE904400294019403946946D8
:101A100006480794FFF79EF808B1FEF7CFFB03488E
:101A2000FFF7A4FA16B010BD002C01409801002069
:101A300010B586B0002417480094019402940394D2
:101A4000049413490594016041F61F41C0E9011453
:101A50006321C0E903148461FFF7DAF808B1FEF7E7
:101A6000ADFB4FF48050009069460A48FFF776F9C5
:101A700008B1FEF7A3FB049404A906480594FFF7F8
:101A800093F8002801D0FEF799FB06B010BD0000C6
:101A900000080040280200200C4810B50A490160E7
:101AA0004FF461414160002181600C22C160C0E9B6
:101AB00004128161C161FFF74DFD002803D0BDE82C
:101AC0001040FEF77BBB10BD0038014070020020C3
:101AD0000C4810B50A4901604FF4E1314160002122
:101AE00081600C22C160C0E904128161C161FFF70D
:101AF00031FD002803D0BDE81040FEF75FBB10BDEC
:101B000000440040B802002040F6B831884200D9B5
:101B100008464FF496725043B0FBF1F080B2704724
:101B2000FEE7000010B5044608480078A0420BD03C
:101B30000C210748FFF724FB204600F003FA20465B
:101B4000BDE8104000F070B810BD0000100000208B
:101B500098010020012211020148FEF7D6BC0000C6
:101B6000000801402DE9F0410A4C15460746A160E6
:101B70000020E0600126A670384600F02BF82846C9
:101B800000F04AF800F008F82670A5806770BDE8FC
:101B9000F08100000000002000224FF48071014815
:101BA000FEF7B3BC0008014010B5084C207800F0E7
:101BB000C9F9207900F00EF8FFF7EEFF00206080F1
:101BC000BDE810400C210248FFF7DABA10000020EF
:101BD0009801002010B5044606484FF48051012CAE
:101BE00005D00122FEF791FC0348047110BD0022CC
:101BF000F8E7000000080140100000200449488078
:101C000010B1087800F010B80C210248FFF7B8BAFC
:101C1000100000209801002010B5FFF775FFBDE807
:101C20001040FFF7EBBF000010B54FF4C861082863
:101C30000ED0102804D0202805D0402808D105E077
:101C40004FF4486104E04FF4C85101E04FF44851AB
:101C50001348408841433C22B1FBF2F138B11148AE
:101C6000B0FBF1F4641E0A2C07D20A240AE0BDE896
:101C700010400C210C48FFF783BAB4F5803F01D324
:101C80004FF6FF740C210848FFF77AFA06480168FE
:101C9000CC62C460BDE810400C21FFF723BA0000FD
:101CA0001000002040420F0098010020FEE770471E
:101CB0002DE9F74F9EB08B46804600252E46FF2427
:101CC0005C216846FEF747FA10212098FEF743FA98
:101CD00000F042FC55A04FF4FA7300681B900522F7
:101CE00004211BA800F0DEFD00287DD150480178BA
:101CF000AA2979D18178102976D1C178012973D1A7
:101D00008146007955286FD156E0642000F090FD9F
:101D100018B1012842D0FF2442E0454917A80A78AB
:101D2000AA2A4AD14A78152A47D18A78102A44D15A
:101D3000CA7842BB8A7D552A3FD11022891DFEF701
:101D4000F1F9761CB6B200270BE000BF07EBC70124
:101D50000AEB4100102217A9FEF708FAA0B17F1C78
:101D6000FFB2AF42F2D3052D27D205EBC5010AEB36
:101D70004107102217A93846FEF7D4F9012038741C
:101D80006D1C7874EDB218E007EBC7010AEB410057
:101D9000017CFF2911D2491C01740EE006B1012417
:101DA00024A04FF4FA7300681C90052204211CA89B
:101DB00000F078FD20B111E0EA464645A5D3EEE7F4
:101DC00099F800104846AA2908D18178122905D12E
:101DD000C17819B999F80400552802D0012C00D017
:101DE000FF240020514613E017E000BF00EBC002C3
:101DF00001EB4202137C5B4508D300EBC0000AEB09
:101E0000400110222098FEF78DF90CE0401CC0B272
:101E1000A842EBD3012C06D0FF2400F09DFB21B09B
:101E20002046BDE8F08F0124F7E70000AA02105514
:101E30003C000020AA021255044800214180818004
:101E4000014601220248FFF72FBC000016000020C7
:101E50007002002008494A888B889A4201D10020EC
:101E60007047064A8B88D25C02708888401CC0B2DA
:101E700088800120704700001600002055000020D7
:101E800038B511A0FF24006800904FF4FA730622C1
:101E90000421684600F006FD78B90C480178AA29AB
:101EA0000AD14178042907D18178012904D1C17868
:101EB00011B94179552904D0FE2400F04DFB20468C
:101EC00038BD0479F9E70000AA0201553C00002062
:101ED0001CB513A2FF24D2E90012CDE900128DF83F
:101EE00004004FF4FA7305220621684600F0DAFC7C
:101EF00078B90D480178AA290AD14178032907D178
:101F00008178022904D1C17811B90079552804D00B
:101F1000FE2400F021FB20461CBD0124F9E700004F
:101F2000AA040201005500003C0000200A460146B8
:101F30004FF47A730148FFF73FBC0000B80200205D
:101F40007047000070B54FF48041154C4E000546B7
:101F5000082813D0102D13D0202D1BD0402D4FF06A
:101F600000020ED02046FEF7D0FA0022314620466D
:101F7000FEF7CBFA08250B48057070BD00220AE079
:101F800001222046FEF7C1FA012231462046FEF723
:101F9000BCFAF0E701222046FEF7B7FA0022F4E788
:101FA000000C014010000020FEF7BABA30B58FB027
:101FB00028216846FEF7CFF814210AA8FEF7CBF8CF
:101FC00001210804CDE900100024029402250491A7
:101FD000CDE907504FF4E01009906846FEF714FC75
:101FE00008B172B6FEE70F20CDE90A054FF4806014
:101FF000CDE90C4002210AA80E94FEF729FB002827
:1020000001D072B6FEE70FB030BD70470148FEF751
:1020100014BF0000980100200148FEF70EBF000029
:10202000980100200148FEF708BF0000E0010020F1
:102030000148FEF702BF000028020020F0B5026848
:10204000194B1A4C1A4D4FF08047984205D0B842B0
:1020500003D0A04201D0A84203D122F070064A6802
:102060003243984205D0B84203D0A04201D0A842E2
:1020700003D122F44074CA6822434C6922F08002E2
:10208000224302608A68C2620A688262984201D171
:1020900009690163012141610169C90703D001692F
:1020A00021F001010161F0BD002C0140000400405D
:1020B0000008004010B501F01F030121046A994097
:1020C0008C430462016A9A401143016210BD10B54D
:1020D000846842EA032224F47F440A432243826054
:1020E00010BD826822F070020A4342F0070181604D
:1020F0007047000030B5036A026A22F001020262F2
:102100004268846924F073050C682C4323F00205AF
:102110008B682B430A4DA8420BD123F00805CB68EE
:1021200022F440722B434D6923F0040315438A695E
:102130002A434260846149684163036230BD000004
:10214000002C014030B5026A036A23F010030362D9
:10215000436884690D6824F4E64444EA05248D68E4
:1021600022F0200242EA05120B4DA8420ED1CD68A2
:1021700022F0800242EA05124D6923F4406343EAEB
:1021800085038D6922F0400243EA85034360846140
:1021900049688163026230BD002C014030B5036A9A
:1021A000026A22F4807202624268C46923F40073F6
:1021B00024F073050C682C438D6843EA05230C4D0D
:1021C000A8420ED1CD6823F4006343EA05234D698C
:1021D00022F4405242EA05128D6923F4806342EAF8
:1021E00005124260C4614968C163036230BD0000EA
:1021F000002C014030B5046A026A22F48052026267
:102200004268C3690D6823F4E64343EA05238D68F9
:1022100024F4005444EA0534064DA84204D14D6923
:1022200022F4804242EA85124260C3614968016437
:10223000046230BD002C014010B5036A046A24F02A
:1022400001040462846924F0F00444EA021423F0D7
:102250000A020A438461026210BD10B5036A046A6F
:1022600024F010040462846923F0A00324F4704471
:1022700044EA023243EA01118261016210BD10B5E5
:10228000406A0021C185C184FFF72CF810BD0168A8
:102290000C3151E8002F22F4907241E80023002B0A
:1022A000F5D10168143151E8002F22F0010241E814
:1022B0000023002BF5D1016B012909D101680C31F4
:1022C00051E8002F22F0100241E80023002BF5D145
:1022D000202180F8421000210163704708B590F872
:1022E0004210222901D0022008BD82684FF4805399
:1022F0009A4201D1016921B1816A9A421BD04AB147
:102300000AE00268816A5268C2F308020A80816AA0
:10231000891C08E0026972B10268526802F07F020B
:102320000A70816A491C8162C18D491E0904090C29
:10233000C18503D01BE002685268F1E70168CA68F2
:1023400022F02002CA600168CA6822F48072CA6062
:1023500001684A6922F001024A61202180F8421096
:1023600000214163026B012A03D0FFF7ABF9002083
:1023700008BD016301680C3151E8002F22F0100202
:1023800041E80023002BF5D101680A68D20602D586
:102390000A6849680091818DFEF7A3FFE7E7000016
:1023A00070B5044600680169E26821F440511143A8
:1023B00001612169A0680843616908432168CA680E
:1023C00041F20C639A430243CA6020684169A269E2
:1023D00021F44071114341611E492068884202D1B5
:1023E000FEF7DCF901E0FEF7C9F900EBC00101EBF3
:1023F0000012606864218000B2FBF0F3B3FBF1F3DC
:102400006FF018067343B2FBF0F5B2FBF0F605EB84
:102410008305322303EB0515B5FBF1F5B6FBF1F6A9
:1024200005F0F00505EB0615B2FBF0F6B2FBF0F097
:10243000B0FBF1F06FF01802504306EB800003EBA5
:102440000010B0FBF1F0216800F00F002844886014
:1024500070BD00000038014081628285C285002184
:102460004164222180F84210016921B10168CA68E3
:1024700042F48072CA6001684A6942F001024A610E
:102480000068C16841F02001C160002070472DE95B
:10249000F843984617460D460446089E24E0701CF3
:1024A00022D0FEF737F8A0EB0800B0421AD8CEB120
:1024B0002068C168490717D5802D15D0402D13D04D
:1024C0000168C94309070FD40168002540680090DE
:1024D0002046FFF7DCFE0820606484F840500120AD
:1024E000BDE8F8830320FBE72068006835EA0000B8
:1024F00004D00020B842D2D00020F1E70120F9E753
:102500000148FEF7F1BE0000700200200148FEF70E
:10251000EBBE0000B8020020FEE70907090E002804
:1025200004DB00F1E02080F80014704700F00F0099
:1025300000F1E02080F8141D704702E008C8121F67
:1025400008C1002AFAD170477047002001E001C19C
:10255000121F002AFBD1704772B602488188418061
:1025600062B6704716000020FDF7E2FFFFF71EFD80
:10257000FFF774F9FFF7F8F9FFF78EFAFFF7A8FAFB
:10258000FFF756FAFFF710FB1D4D08212846FDF70F
:10259000B7FF78B300201B4CA07010212846FDF730
:1025A000AFFF40B30020E070207920726079607244
:1025B0002079A0706079E0700220A071E07112486B
:1025C000FEF7A0FB1148FEF79DFBFFF735FC0D4918
:1025D00001220B310E48FFF767F80820FFF7A2FA37
:1025E0000025607810B100F015F865700120FDF746
:1025F00057FEF6E700E001E00120CCE70120D2E73A
:10260000000C01401C00002098010020280200203E
:10261000B80200202DE9F0478AB014216846FDF782
:102620009AFDDFF86C815B49404698F80D404FF009
:10263000010ADFF86491C07B0B78B1F80120002516
:10264000564640F6B83C092C70D2DFE804F09A05F3
:1026500030435771799A8E00032868D354BA1F46C5
:10266000644500D9644627B1012F05D198F80300CD
:1026700001E098F8020030B1FFF76CFA89F80050D9
:102680008DF800500FE03846FFF7A4FA2046FFF718
:10269000C3FAFFF781FA89F8006040480480404897
:1026A00007708DF800606A465146012056E0052803
:1026B00056D31846B1F8031053BA4ABA624500D946
:1026C00062461946FFF74EFA31468DF800606A46B9
:1026D000022043E058B333484BB1012B05D08DF8AD
:1026E00000506A465146032038E0012200E00022F3
:1026F0002021FDF70AFF8DF80060F2E7022806D3DB
:102700001846497805AAFFF7D3FA012805D0102109
:10271000009501950295039505E005AE102196E818
:102720001D008DE81D006A46042017E029E017E02F
:10273000FFF7A6FB8DF800006A46514605200DE024
:1027400020B11846FFF7C4FB012802D08DF80050D5
:1027500001E08DF800606A465146062000F0BCF8A2
:1027600088F80F500AB0BDE8F08799F8000010B162
:102770008DF8006001E08DF800506A46514608204F
:10278000ECE78DF800506A4651462046E6E7000027
:102790001C00002055010020000000200400002043
:1027A00001000020000C01402DE9F8430F4681464E
:1027B000FDF7B0FE06460024254619211B48FDF70B
:1027C000CAFCDFF868802AE06846FFF743FB18B3CD
:1027D00085B1192C05D29DF8001008F80410641C6E
:1027E000E4B24C4513D108EB040010F8010C552855
:1027F0000AD00EE09DF80000AA2810D1012508F8A3
:102800000400641CE4B20AE00020BDE8F883192C3F
:1028100005D30024254602E00120FDF741FDFDF728
:1028200079FE801BB842CFD3FF20EEE73C000020AA
:10283000F8B50746FDF76EFE064600241921184834
:10284000FDF789FC164D24E06846FFF703FBE8B16D
:102850004CB1172C04D29DF800002855641CE4B23A
:10286000172C16D104E09DF80000AA2811D10AE027
:10287000A87D552805D09DF80000AA2803D0002483
:1028800007E00020F8BD2870012402E00120FDF7D8
:1028900007FDFDF73FFE801BB842D5D30120F8BDF0
:1028A0003C0000202DE9F0411E4617460C46054627
:1028B000FFF752FE6423224629460648FEF77CFFB6
:1028C00010B1FF20BDE8F08131463846BDE8F04147
:1028D000FFF76ABF7002002030B591B00C464FF090
:1028E000FE018DF800108DF8011004F103018DF840
:1028F00002100E4913006D46097B8DF803108DF808
:1029000004004FF0050107D034B122461946681D76
:10291000FDF708FC641DE1B2FA206854491CC9B2F5
:102920006846FFF703FB11B030BD00001C0000201B
:10293000010202030405060708090A0B0C0D0E0F1D
:102940001010000000000000000001020304060750
:102950000809000000000102030400007C290008AF
:10296000000000203C0000003A250008B8290008BB
:102970003C000020C40600004A25000800000000BA
:10298000000000000000000000000000080000003F
:102990000000000000000000000000000000000037
:1029A0000000000000000000010000001000000016
:0829B0000000000000127A0093
:04000005080000ED02
:00000001FF
