:020000040800F2
:100000009805002001010008391C0008E7170008C6
:10001000AD1A0008910100081D2200080000000030
:10002000000000000000000000000000511C00085B
:1000300093010008000000003B1C0008B91C0008E8
:100040001B0100081B0100081B0100081B01000820
:100050001B0100081B0100081B0100081B01000810
:100060001B010008950100089B0100081B01000806
:100070001B0100081B0100081B0100081B010008F0
:100080001B0100081B0100081B0100081B010008E0
:100090001B0100081B0100081B0100081B010008D0
:1000A0001B010008291D00081B0100081D1D000878
:1000B0001B0100081B010008351D00081B0100087A
:1000C0001B0100081B0100081B0100081B010008A0
:1000D0001B01000805220008112200081B0100086E
:1000E0001B0100081B0100081B010008DFF80CD0F1
:1000F00000F03CF8004800475D2200089805002009
:100100000648804706480047FEE7FEE7FEE7FEE7B1
:10011000FEE7FEE7FEE7FEE7FEE7FEE71B1D000841
:10012000ED00000840EA01039B0703D009E008C97D
:10013000121F08C0042AFAD203E011F8013B00F8AC
:10014000013B521EF9D27047D2B201E000F8012BF8
:10015000491EFBD270470022F6E710B513460A4647
:1001600004461946FFF7F0FF204610BD064C074D28
:1001700006E0E06840F0010394E807009847103477
:10018000AC42F6D3FFF7B6FF9C240008BC2400085D
:10019000FEE77047082000F0A9B8102000F0A6B8CC
:1001A00072B6FEE710B590F821100022022905D0A2
:1001B0000421816380F82020012010BD01680B68B4
:1001C00023F00E030B6001680B6823F001030B6042
:1001D00090F84030C46B012101FA03F3636080F8AA
:1001E000211080F82020104610BD000010B590F8B6
:1001F00021100024022903D00421816301243DE061
:1002000001680A6822F00E020A6001680A6822F09A
:1002100001020A601A4A0168914201D1012121E0DC
:10022000174A1432914201D110211BE0144A28329E
:10023000914201D1891515E0114A3C32914201D118
:1002400089140FE00E4A5032914202D14FF48031AE
:1002500008E00B4A6432914202D14FF4801101E070
:100260004FF08071064A083A5160012180F8211050
:10027000002180F82010416B01B18847204610BD55
:100280000800024070B5044600F036F90546601CCF
:1002900002D004480078044400F02EF9401BA0422C
:1002A000FAD370BD2800002070B500250D4A0E4C11
:1002B00008280AD0102807D11021104600F012F9A2
:1002C00070B100206071E57170BD0821104600F02A
:1002D00009F918B100202071A57170BD0120FAE75D
:1002E0000120EFE7000C014000000020044910B598
:1002F0000A68024202D00860FFF7D6FF10BD000076
:10030000140401402DE9F84FDFF8B8910024A9F159
:10031000040B23460F2709F1040AABF1040EC9E0D0
:100320000125A5402A40AA427DD1674ED1F804C0DC
:10033000ACEB0608B44532D014DCBCF1030F3AD064
:1003400009DCBCF1000F2AD0BCF1010F1CD0BCF1BC
:10035000020F31D11DE0BCF1110F17D0BCF1120F0B
:100360002AD119E0B8F5881F19D006DCB8F5803F0E
:1003700015D0B8F5801F1FD111E0B8F5001F0ED0C1
:10038000B8F5041F18D10AE0CB6815E0CB681B1D37
:1003900012E0CB6808330FE0CB680C330CE08B68BD
:1003A0002BB1012B4FF0080303D0456104E0042377
:1003B00002E0056100E00023FF2A01D8064601E0C3
:1003C00000F104064FEA840501D9A5F12005D6F80D
:1003D000008007FA05FC28EA0C0803FA05F548EA4C
:1003E0000508C6F800804D68ED0062D5374DAE694E
:1003F00046F00106AE61AD6924F0030605F0010583
:100400000095334D06EB050CDCF80850A607360FB7
:1004100007FA06F825EA0805DFF8B880404503D159
:100420004FF0000817E044E0DFF8AC80404502D10F
:100430004FF001080FE0DFF8A480404502D14FF0F3
:10044000020808E0DFF89880404502D14FF0030829
:1004500001E04FF0040808FA06F848EA0508CCF86D
:1004600008804D68D9F80060ED024D4601D516436D
:1004700000E096432E604D68DAF80060AD02554604
:1004800001D5164300E096432E604D68DBF800600E
:10049000AD035D4601D5164300E096432E604D68DE
:1004A000DEF80060ED03754601D5164300E0964383
:1004B0002E60641C0D682A46E5407FF431AFBDE82C
:1004C000F88F0000080401400000111000100240E5
:1004D0000000014000080140000C014000100140F4
:1004E000001401408068084000D0012070470AB124
:1004F000016170470904FBE701488068704700000C
:100500002800002002488168027811448160704709
:1005100028000020074810B5016841F01001016073
:10052000032000F075F80F2000F006F800F024F822
:10053000002010BD0020024070B50D4D04464FF460
:100540007A712878B1FBF0F00A490968B1FBF0F044
:1005500000F0DCFA48B9102C07D200222146501EC8
:1005600000F036F800206C6070BD012070BD000006
:1005700028000020340000200C4808B5816941F0B3
:1005800001018161816901F001010091C16941F0BE
:100590008051C161C06900F08050009004484168FA
:1005A00021F0E06141F00071416008BD001002409F
:1005B00000000140002809DB00F01F0201219140EA
:1005C0004009800000F1E020C0F8001170470000F1
:1005D000F0B40E4B1B680C46C3F30223C3F10705AE
:1005E000042D00D90425191D072901D2002300E09C
:1005F000DB1E012606FA05F1491E214099409E4066
:10060000761E16403143F0BC01F009BE0CED00E04F
:10061000064900F0070208684FF6FF03184040EA59
:100620000220034A10430860704700000CED00E010
:100630000000FA052DE9F0470F46050061D0434E52
:10064000306800F00700B84209D2306820F0070097
:1006500038433060306800F00700B84251D1286854
:100660003B4C810712D5400703D5606840F4E06039
:1006700060602878000703D5606840F460506060CF
:100680006068A96820F0F000084360602878C0071F
:1006900028D06868012810D02168022810D0890766
:1006A00000292EDA616821F0030101436160FFF740
:1006B00023FF804641F288390DE021688903EFE786
:1006C0008901EDE7FFF718FFA0EB0801494502D9C2
:1006D0000320BDE8F0876068696800F00C00B0EBAB
:1006E000810FEFD1306800F00700B8420BD93068B5
:1006F00020F0070038433060306800F00700B8424F
:1007000001D00120E5E72878400705D56068E96851
:1007100020F4E060084360602878000706D5606830
:10072000296920F4605040EAC100606000F038F8A8
:100730006168084AC1F30311515CC840064908606A
:1007400006480068FFF7F8FE0020C2E700200240DC
:100750000010024082240008340000202C000020F9
:100760000448054900684968044AC1F30221515C04
:10077000C840704734000020001002409224000856
:100780000448054900684968044AC1F3C221515C24
:10079000C840704734000020001002409224000836
:1007A0000E4A51680E4801F00C03042B11D0082B9F
:1007B0000FD10C48C1F38343C903C05C0AD551680B
:1007C000084AC1F34041921E515C054A5043B0FBB8
:1007D000F1F07047044948437047000000100240A0
:1007E00000127A007224000800093D002DE9F84F3C
:1007F000040070D02078C04DC00749D06868C0F3AD
:100800008100012807D06868C0F38100022809D15F
:100810006868C00306D52868800339D56068002859
:10082000E7D035E06068B0F5803F0BD010B1B0F58F
:10083000A02F11D0286820F480302860286820F488
:10084000802002E0286840F480302860606890B121
:10085000FFF752FE06460AE0286840F48020286030
:10086000F0E700BFFFF748FE801B642873D82868B4
:100870008003F7D50CE0FFF73FFE064605E000BF1A
:10088000FFF73AFE801B6428F0D828688003F7D46D
:1008900020789A4E80074FF001094FF0000839D5B3
:1008A000686810F00C0F07D06868C0F38100022858
:1008B00009D16868C00306D42868800714D5206968
:1008C000012808D110E02069B0B1C6F80090FFF708
:1008D00013FE074605E00AE1FFF70EFEC01B0228E3
:1008E000C4D828688007F7D52868616920F0F80027
:1008F00040EAC10028600DE0C6F80080FFF7FCFD6B
:10090000074604E0FFF7F8FDC01B022823D828683B
:100910008007F7D4207800072CD57948A169D9B190
:10092000C0F80090FFF7E8FD074604E0FFF7E4FD9C
:10093000C01B02280FD8686A8007F7D571484FF4AA
:10094000FA510068B0FBF1F0009000BF0098411E22
:100950000091FAD20EE080E0C0F80080FFF7CCFDF5
:10096000074604E0FFF7C8FDC01B022875D8686A77
:100970008007F7D42078400760D5E8690027C000D9
:1009800008D4E86940F08050E861E869012700F088
:10099000805000905C480168C90513D40168834603
:1009A00041F480710160FFF7A7FD824606E000BFB9
:1009B000FFF7A2FDA0EB0A0064284ED8DBF8000088
:1009C000C005F5D5E06801280AD008B1052813D084
:1009D000286A20F001002862286A20F0040002E062
:1009E000286A40F001002862E06841F2883B98B133
:1009F000FFF782FD82460BE0286A40F0040028627F
:100A0000EEE700BFFFF778FDA0EB0A0159455AD881
:100A1000286A8007F6D50CE0FFF76EFD824605E0F8
:100A2000FFF76AFDA0EB0A0159454CD8286A8007F8
:100A3000F6D41FB1E86920F08050E861E06988B31E
:100A40006968C1F38101022944D00228C6F8608098
:100A500004D0FFF751FD044638E034E0FFF74CFDC9
:100A6000074604E0FFF748FDC01B02282BD8286882
:100A70008001F7D4206AB0F5803F05D16868A1688D
:100A800020F4003008436860D4E90801084369682D
:100A900021F4741108436860C6F86090FFF72CFDDC
:100AA000044606E025E000BFFFF726FD001B0228F4
:100AB00009D828688001F7D51BE000BFFFF71CFDAF
:100AC000001B022802D90320BDE8F88F28688001A6
:100AD000F4D40EE00128F7D06868226A00F480316F
:100AE000914204D1616A00F47010884201D0012063
:100AF000EAE70020E8E70000001002400000424260
:100B000080044242340000200070004010B5401EB6
:100B1000B0F1807F01D3012010BD4FF0E02460616F
:100B20000F21601701F07BFB0020A06107202061EE
:100B3000002010BD7047704710B590F83C20012A86
:100B400022D0012280F83C20CA688C6822F44072CE
:100B500022434C6822F4806222430C6822F4006233
:100B600022430C6922F4805222434C6922F4005241
:100B70002243C969002322F480420A4301684A647F
:100B800080F83C30002010BD022010BD70B590F8F8
:100B90003C20012A26D0012480F83C40022280F823
:100BA0003D2003685A689D6822F070060A68324347
:100BB0005A600D4B02689A4208D0B2F1804F05D0BE
:100BC0000A4B9A4202D00A4B9A4204D1496825F056
:100BD00080031943916080F83D40002180F83C106B
:100BE000084670BD022070BD002C0140000400408A
:100BF0000008004010B5040003D094F83D0010B187
:100C000007E0012010BD002084F83C00204600F0E1
:100C10001FF8022084F83D00211D206801F090F8A3
:100C2000012084F8460084F83E0084F83F0084F8F0
:100C3000400084F8410084F8420084F8430084F8BE
:100C4000440084F8450084F83D00002010BD0000F9
:100C500008B5194A01681948914216D1816941F4D1
:100C6000006181618069002200F4006000901146FB
:100C70001920FFF7ADFC1920FFF79CFC002211465C
:100C80001B20FFF7A5FC1B2010E00D4A914211D15B
:100C9000C16941F00401C161C069002200F0040093
:100CA000009011461E20FFF793FC1E20BDE808406F
:100CB000FFF780BC08BD0000002C0140001002407E
:100CC0000008004090F83D10012901D00120704734
:100CD000022180F83D100168CA6842F00102CA6032
:100CE00000680B49884208D0B0F1804F05D009490F
:100CF000884202D00849884204D1816801F0070186
:100D0000062903D0016841F001010160002070470D
:100D1000002C0140000400400008004070B504466B
:100D200090F83C000025012817D0012684F83C608B
:100D3000022084F83D002068826822F0770222F4C5
:100D40007F4282600868502838D00DDC20284FD0C0
:100D500005DC90B3102811D14AE0022070BD302884
:100D600046D040280AD13BE060282FD070280DD013
:100D7000B0F5805F03D0B0F5005F12D0012584F894
:100D80003D60002084F83C00284670BDCB68D1E966
:100D90000121206801F01DF82068816841F0770189
:100DA00009E0CB68D1E90121206801F012F8206840
:100DB000816841F480418160E1E719E0CA684968CF
:100DC000206801F0BBF85021206806E0CA68496835
:100DD000206801F0C4F86021206801F004F8CEE733
:100DE000CA684968206801F0A9F840212068F4E742
:100DF000226801461046F0E770472DE9F0410446AD
:100E00000068C66805694FF00007A90713D5B10748
:100E100011D5F91E016101202077206880698007C3
:100E2000204602D0FFF7E8FF04E000F0A5F82046D6
:100E300000F037F92777680716D5700714D52168B1
:100E40006FF004000861022020772068806910F4A8
:100E5000407F204602D0FFF7CFFF04E000F08CF87F
:100E6000204600F01EF92777280715D5300713D53F
:100E700021686FF008000861042020772068C069AD
:100E80008007204602D0FFF7B7FF04E000F074F8B7
:100E9000204600F006F92777E80616D5F00614D5A7
:100EA00021686FF010000861082020772068C06971
:100EB00010F4407F204602D0FFF79EFF04E000F0D0
:100EC0005BF8204600F0EDF82777E80708D0F00738
:100ED00006D021686FF001000861204600F068F933
:100EE000280608D5300606D521686FF08000086115
:100EF0002046FFF71FFE680608D5700606D5216854
:100F00006FF040000861204600F0CAF9A8060AD533
:100F1000B00608D521686FF0200008612046BDE8C2
:100F2000F041FFF708BEBDE8F081000000B585B0D4
:100F30000021009101910291039100680B498842C0
:100F400012D10B48816941F00401816180696946D1
:100F500000F0040004904FF4006000900220019023
:100F600003900448FFF7CEF905B000BD002C014006
:100F70000010024000080140704770B5044690F828
:100F80003C0000260D4601280FD0012084F83C00CB
:100F90006AB1042A1DD0082A2FD00C2A3FD001267E
:100FA000002084F83C00304670BD022070BD2068EF
:100FB00000F022FF2068816941F00801816120680A
:100FC000816921F004018161206881692A691143E6
:100FD00011E0206800F038FF2068816941F4006169
:100FE00081612068816921F4806181612068816963
:100FF0002A6941EA02218161D2E7206800F050FFAE
:101000002068C16941F00801C1612068C16921F00F
:101010000401C1612068C1692A69114311E0206897
:1010200000F06AFF2068C16941F40061C161206875
:10103000C16921F48061C1612068C1692A6941EAFE
:101040000221C161ACE710B5040003D094F83D0063
:1010500010B107E0012010BD002084F83C002046BC
:1010600000F01EF8022084F83D00211D206800F0E9
:1010700067FE012084F8460084F83E0084F83F00B3
:1010800084F8400084F8410084F8420084F843006A
:1010900084F8440084F8450084F83D00002010BD29
:1010A0007047704710B50446022249B104290ED09A
:1010B000082913D094F84100012816D0012010BD52
:1010C00094F83E000128F9D184F83E200FE094F80E
:1010D0003F000128F2D184F83F2008E094F8400056
:1010E0000128EBD184F8402001E084F8412001225E
:1010F000206800F061FE0F492068884203D1426CED
:1011000042F4004242642068884208D0B0F1804F27
:1011100005D00949884202D00849884204D1816833
:1011200001F00701062903D0016841F001010160C7
:10113000002010BD002C01400004004000080040C9
:1011400030B504460D460068002200F035FE174B0E
:1011500041F2111120688A10984209D1036A0B42AA
:1011600006D1036A134203D1436C23F40043436462
:101170002068036A0B4206D1016A114203D101685B
:1011800021F00101016001203DB1042D08D0082D9E
:1011900009D084F84100002030BD84F83E00FAE711
:1011A00084F83F00F7E784F84000F4E7002C0140A2
:1011B0002DE9F04700683149314F0025314E884212
:1011C00014D1387800280FD0307800280CD02E4861
:1011D0000168491C016000682C490968884203D3F2
:1011E00000F07EFC35703D70BDE8F08728498842EC
:1011F000FAD1284CA079DFF8A080DFF8A09002286F
:1012000019D2A079401CA071A079022813D12079AD
:10121000217A88420FD02072A070A07858B1387817
:1012200048B9307838B198F8000020B900F058FC7F
:101230003570A9F80050E0790228D5D2E079401C39
:10124000E071E0790228CFD16079617A8842CBD011
:101250006072E070E0780028C6D038780028C3D1EA
:1012600030780028C0D098F800000128BCD100F0E8
:1012700037FC3570A9F80050B6E70000002C01409B
:1012800012000020100000201C0000201800002088
:101290000008004000000020110000201400002081
:1012A0007047704770470000F8B501680446086849
:1012B000CA684B6910F00F0F4FF0000559D003F0CA
:1012C000010602F49077374365D0C10705D0D105F8
:1012D00003D5616C41F001016164410705D5D9076F
:1012E00003D0616C41F002016164810705D5D90723
:1012F00003D0616C41F004016164010707D502F07D
:101300002001314303D0616C41F008016164616CDC
:1013100000293AD0800604D5900602D5204600F078
:101320005FFE20684069616CC0F38010090700D43B
:1013300060B3204600F02DFE20684069400621D5AC
:101340002068143050E8001F21F0400140E80012EE
:10135000002AF5D1E06BA8B16D494163E06BFEF75F
:1013600045FF002811D0E06B416B01B0BDE8F040B3
:10137000084783060FD593060DD52046BDE8F840F3
:1013800000F02EBE2046FFF78DFFF8BD2046FFF788
:1013900089FF6564F8BD266B2023012E7CD1C6062B
:1013A0007AD5D60678D508684868009048694FF025
:1013B0000206400640D5E16B086840680004000C56
:1013C000E8D0A28D8242E5D9E085886920282DD019
:1013D00020680C3050E8001F21F4807140E80012B2
:1013E000002AF5D12068143050E8001F21F00101D7
:1013F00040E80012002AF5D12068143050E8001FA0
:1014000021F0400140E80012002AF5D184F8423072
:10141000256320680C3050E8001F21F0100140E8DF
:101420000012002AF5D1E06BFEF7BCFE6663A08DCA
:10143000E18D401A81B22AE0A08DE18D401A81B27F
:10144000E08D0028A6D00029A4D022680C3252E8F2
:10145000000F20F4907042E80007002FF5D12068BB
:10146000143050E8002F22F0010240E80027002F3E
:10147000F5D184F84230256320680C3050E8002F05
:1014800022F0100240E80023002BF5D166632046CD
:10149000FFF707FFF8BDFFE705062BD5150629D591
:1014A00094F841002128F5D1A068B0F5805F01D102
:1014B0002069B0B1206A411C21622168007848602F
:1014C000E08C401E0004000CE084E3D12068C16879
:1014D00021F08001C1602068C16841F04001C16015
:1014E000D8E7206A0088C0F308004860206A801CA2
:1014F0002062E5E74006CDD55006CBD5CA68204628
:1015000022F04002CA6084F8413000F06BF9C1E774
:10151000831F000870B5040004D094F84100002532
:1015200010B106E0012070BD84F84050204600F064
:1015300023F8242084F841002068C16821F4005178
:10154000C160204600F0AEFD2068016921F49041A1
:1015500001612068416921F02A0141612068C16868
:1015600041F40051C1606564202084F8410084F892
:1015700042006563002070BD30B585B00024009442
:10158000019402940394324D0368324802210322ED
:10159000AB422ED1836943F480438361836903F4B2
:1015A00080430493836943F00803836180692A4D73
:1015B00000F0080004904020CDE900010392694644
:1015C0002846FEF79FFE8020CDE9000469462846A4
:1015D0000294FEF797FE2148416841F0E06141F036
:1015E00004014160002211462520FEF7F1FF25206D
:1015F00029E01B4DAB4228D1C36943F40033C361DA
:10160000C36903F400330493836943F004038361E3
:101610008069144D00F0040004900420CDE900011D
:10162000039269462846FEF76DFE0820CDE90004C6
:10163000694628460294FEF765FE002211462620E0
:10164000FEF7C6FF2620FEF7B5FF05B030BD00004F
:101650000038014000100240000C01400000014031
:10166000004400400008014090F84230202B01D097
:101670000220704721B11AB10023036300F06EBD50
:1016800001207047F0B400682A4988424FD12A48A7
:1016900002260022837AC17AFE2B01D1FE290DD0C9
:1016A00081720778244C01230625A47B072F17D2CB
:1016B000DFE807F0080C10181B2439000670C2730D
:1016C000817229E0FE2927D1037025E0FE2907D188
:1016D000067021E08173C273032901D3032108E05E
:1016E000027019E00173042103E04173032C02D955
:1016F0000521017010E0057043700DE0C37B402BA5
:1017000004D20E4AD1545B1CC37300E00270D9B2FC
:10171000E41EA14200DB0570F0BC074901220B3139
:101720000748FFF7A1BFFA29DAD14370D8E7F0BC28
:1017300070470000004400400000002038000020F6
:10174000500100202DE9F843044690F841009846E6
:1017500016460D46202802D00220BDE8F88385B148
:101760007EB100206064212084F84100FEF7C4FEB1
:10177000A6848146E684A0682027B0F5805F02D069
:1017800003E00120E9E7206910B12E4600250EE0B4
:1017900000260CE08021204600F0FBFCA8B9C6B171
:1017A00016F8010B21684860E08C401EE084E08C54
:1017B0004B464FF00002CDF800800028EAD14FF0F0
:1017C0004001204600F0E5FC40B184F84170032060
:1017D000C3E735F8020BC0F30800E3E784F8417073
:1017E0000020BAE77047FEE72DE9F04385B00024FA
:1017F0003C480094019402940394816941F02001D3
:101800008161816901F020010491816941F0040145
:101810008161816901F004010491816941F008014D
:1018200081618069DFF8C09000F008000490002218
:101830004DF220014846FEF75AFEDFF8B080002244
:101840004FF411414046FEF752FE4FF481500125FE
:101850000226CDE90005CDE9024669464846FEF775
:1018600051FD6803CDE90004694648460294FEF73D
:1018700049FD4FF440400327CDE90005CDE902477B
:1018800069464846FEF73EFD4FF48850CDE9000515
:10189000CDE9024769464046FEF734FDE8038DE88E
:1018A0006100694640460396FEF72CFD1820009023
:1018B0000F48CDE9010569464846FEF723FD0022A1
:1018C00011460920FEF784FE0920FEF773FE002270
:1018D00011460A20FEF77CFE0A20FEF76BFE05B0DB
:1018E000BDE8F08300100240000C014000080140F8
:1018F0000000311010B596B000240F94109411948C
:10190000129413941C2108A81494FEF724FC20219F
:101910006846FEF720FC2848264901604721C0E9B7
:1019200001144FF41C71C0E9031444618461FFF792
:1019300061F908B1FEF734FC4FF480500F900FA905
:101940001D48FFF7EBF908B1FEF72AFC1A48FFF72C
:101950007AFB08B1FEF724FC139413A916481494DB
:10196000FFF714F908B1FEF71BFC602008900A206D
:10197000CDE909040C940D940C2208A90E480E948C
:10198000FFF7FBFA08B1FEF70BFC00944FF4005090
:10199000CDE90440029401940394694606480794F3
:1019A000FFF7CAF808B1FEF7FBFB0348FFF7BEFAE2
:1019B00016B010BD002C01407800002010B586B094
:1019C000002417480094019402940394049413494A
:1019D0000594016041F61F41C0E901146321C0E98B
:1019E00003148461FFF706F908B1FEF7D9FB4FF441
:1019F0008050009069460A48FFF790F908B1FEF759
:101A0000CFFB049404A906480594FFF7BFF800280B
:101A100001D0FEF7C5FB06B010BD00000008004075
:101A2000C00000200C4810B50A4901604FF4614124
:101A30004160002181600C22C160C0E90412816113
:101A4000C161FFF767FD002803D0BDE81040FEF735
:101A5000A7BB10BD00380140080100200C4810B59C
:101A60000A4901604FF4E1314160002181600C229C
:101A7000C160C0E904128161C161FFF74BFD00281C
:101A800003D0BDE81040FEF78BBB10BD0044004002
:101A90005001002040F6B831884200D908464FF482
:101AA00096725043B0FBF1F080B27047FEE7000041
:101AB00010B5044608480078A0420BD00C21074816
:101AC000FFF73EFB204600F0C5F82046BDE8104079
:101AD00000F070B810BD0000200000207800002049
:101AE000012211020148FEF702BD0000000801407A
:101AF0002DE9F0410A4C15460746A1600020E06040
:101B00000126A670384600F02BF8284600F04AF867
:101B100000F008F82670A5806770BDE8F08100002D
:101B20001000002000224FF480710148FEF7DFBC56
:101B30000008014010B5084C207800F08BF820799F
:101B400000F00EF8FFF7EEFF00206080BDE81040C7
:101B50000C210248FFF7F4BA200000207800002092
:101B600010B5044606484FF48051012C05D00122DF
:101B7000FEF7BDFC0348047110BD0022F8E7000029
:101B800000080140200000200449488010B1087876
:101B900000F010B80C210248FFF7D2BA2000002054
:101BA0007800002010B5FFF775FFBDE81040FFF783
:101BB000EBBF000010B54FF4C86108280ED0102804
:101BC00004D0202805D0402808D105E04FF4486112
:101BD00004E04FF4C85101E04FF4485113484088E5
:101BE00041433C22B1FBF2F138B11148B0FBF1F4B2
:101BF000641E0A2C07D20A240AE0BDE810400C211A
:101C00000C48FFF79DBAB4F5803F01D34FF6FF743F
:101C10000C210848FFF794FA06480168CC62C460BA
:101C2000BDE810400C21FFF73DBA00002000002065
:101C300040420F0078000020FEE770470A46014648
:101C40004FF47A730148FFF77DBD0000500100207A
:101C50007047000070B54FF48041154C4E000546AA
:101C6000082813D0102D13D0202D1BD0402D4FF05D
:101C700000020ED02046FEF73AFC002231462046F4
:101C8000FEF735FC08250B48057070BD00220AE000
:101C900001222046FEF72BFC012231462046FEF7AA
:101CA00026FCF0E701222046FEF721FC0022F4E7A3
:101CB000000C014020000020FEF724BC30B58FB09E
:101CC00028216846FEF747FA14210AA8FEF743FACE
:101CD00001210804CDE9001000240294022504919A
:101CE000CDE907504FF4E01009906846FEF77EFDFD
:101CF00008B172B6FEE70F20CDE90A054FF4806007
:101D0000CDE90C4002210AA80E94FEF793FC0028AE
:101D100001D072B6FEE70FB030BD70470148FFF743
:101D20006CB80000780000200148FFF766B800009A
:101D3000780000200148FFF760B80000C0000020D4
:101D4000F0B50268194B1A4C1A4D4FF08047984273
:101D500005D0B84203D0A04201D0A84203D122F05E
:101D600070064A683243984205D0B84203D0A04278
:101D700001D0A84203D122F44074CA6822434C69BE
:101D800022F08002224302608A68C2620A6882628C
:101D9000984201D109690163012141610169C907C3
:101DA00003D0016921F001010161F0BD002C014067
:101DB000000400400008004010B501F01F0301219D
:101DC000046A99408C430462016A9A40114301629B
:101DD00010BD10B5846842EA032224F47F440A430C
:101DE0002243826010BD826822F070020A4342F0F2
:101DF000070181607047000030B5036A026A22F073
:101E0000010202624268846924F073050C682C4365
:101E100023F002058B682B430A4DA8420BD123F017
:101E20000805CB6822F440722B434D6923F004036C
:101E300015438A692A4342608461496841630362A9
:101E400030BD0000002C014030B5026A036A23F067
:101E500010030362436884690D6824F4E64444EA8D
:101E600005248D6822F0200242EA05120B4DA8429B
:101E70000ED1CD6822F0800242EA05124D6923F4AA
:101E8000406343EA85038D6922F0400243EA8503FB
:101E90004360846149688163026230BD002C014067
:101EA00030B5036A026A22F4807202624268C46931
:101EB00023F4007324F073050C682C438D6843EA07
:101EC00005230C4DA8420ED1CD6823F4006343EAEC
:101ED00005234D6922F4405242EA05128D6923F42C
:101EE000806342EA05124260C4614968C1630362CB
:101EF00030BD0000002C014030B5046A026A22F4B3
:101F0000805202624268C3690D6823F4E64343EAE3
:101F100005238D6824F4005444EA0534064DA84294
:101F200004D14D6922F4804242EA85124260C361C5
:101F300049680164046230BD002C014010B5036A99
:101F4000046A24F001040462846924F0F00444EA81
:101F5000021423F00A020A438461026210BD10B524
:101F6000036A046A24F010040462846923F0A00365
:101F700024F4704444EA023243EA011182610162AE
:101F800010BD10B5406A0021C185C184FFF78AF9F0
:101F900010BD01680C3151E8002F22F4907241E825
:101FA0000023002BF5D10168143151E8002F22F0F5
:101FB000010241E80023002BF5D1016B012909D171
:101FC00001680C3151E8002F22F0100241E8002393
:101FD000002BF5D1202180F84210002101637047C9
:101FE00008B590F84210222901D0022008BD82686D
:101FF0004FF480539A4201D1016921B1816A9A421A
:102000001BD04AB10AE00268816A5268C2F3080232
:102010000A80816A891C08E0026972B1026852680C
:1020200002F07F020A70816A491C8162C18D491EDB
:102030000904090CC18503D01BE002685268F1E76E
:102040000168CA6822F02002CA600168CA6822F4E6
:102050008072CA6001684A6922F001024A61202147
:1020600080F8421000214163026B012A03D0FFF780
:1020700009FB002008BD016301680C3151E8002F05
:1020800022F0100241E80023002BF5D101680A6814
:10209000D20602D50A6849680091818DFFF701F9DF
:1020A000E7E7000070B5044600680169E26821F4C2
:1020B0004051114301612169A068084361690843E7
:1020C0002168CA6841F20C639A430243CA602068DF
:1020D0004169A26921F44071114341611E492068A0
:1020E000884202D1FEF74CFB01E0FEF739FB00EB22
:1020F000C00101EB0012606864218000B2FBF0F3C4
:10210000B3FBF1F36FF018067343B2FBF0F5B2FBCB
:10211000F0F605EB8305322303EB0515B5FBF1F56E
:10212000B6FBF1F605F0F00505EB0615B2FBF0F68F
:10213000B2FBF0F0B0FBF1F06FF01802504306EB89
:10214000800003EB0010B0FBF1F0216800F00F00FD
:102150002844886070BD000000380140816282859B
:10216000C28500214164222180F84210016921B119
:102170000168CA6842F48072CA6001684A6942F024
:1021800001024A610068C16841F02001C16000207D
:1021900070472DE9F843984617460D460446089EB9
:1021A00024E0701C22D0FEF7A7F9A0EB0800B04293
:1021B0001AD8CEB12068C168490717D5802D15D02F
:1021C000402D13D00168C94309070FD401680025C9
:1021D000406800902046FFF7DCFE0820606484F829
:1021E00040500120BDE8F8830320FBE72068006829
:1021F00035EA000004D00020B842D2D00020F1E738
:102200000120F9E70148FFF74FB80000080100205E
:102210000148FFF749B8000050010020FEE7090718
:10222000090E002804DB00F1E02080F8001470475C
:1022300000F00F0000F1E02080F8141D704702E06C
:1022400008C8121F08C1002AFAD170477047002041
:1022500001E001C1121F002AFBD17047FEF75AF9B5
:10226000FFF72CFDFFF7C0FAFFF744FBFFF7DAFB9F
:10227000FFF7F4FBFFF7A2FBFFF75CFC1B4D082107
:102280002846FEF72FF968B30020194CA0701021E2
:102290002846FEF727F938B30020E0702079207235
:1022A000607960722079A0706079E0700220A0717E
:1022B000E0711048FEF706FD0F48FEF703FD0C49DC
:1022C00001220B310D48FFF7CFF90820FFF7F0FB93
:1022D0000025607810B100F013F865700120FDF75B
:1022E000D1FFF6E70120D0E70120D6E7000C01403E
:1022F0000000002078000020C000002050010020D5
:102300002DE9F84F0027DFF8F88000973E4A404655
:1023100098F80D304FF0010ADFF8E890C07BB2F872
:1023200001401578564640F6B831012B06D0022BF5
:102330002ED0032B3FD0082B51D05DE0424603281E
:102340005AD364BA8C4200D90C46012D01D015B184
:102350000AE0D07800E0907830B1FFF7C1FB89F84F
:1023600000708DF800700FE02846FFF7F9FB20465B
:10237000FFF718FCFFF7D6FB89F8006023480480BC
:10238000234805708DF800606A465146012031E00F
:10239000052831D3B2F80320284652BA63BA8A42DC
:1023A00000D90A461946FFF7A3FB31468DF80060B5
:1023B0006A4602201EE0F8B11648012D06D03DB154
:1023C0008DF800706A465146032013E0012200E0B8
:1023D00000222021FEF78BF88DF80060F2E799F8D3
:1023E000000010B18DF8006001E08DF800706A46C1
:1023F0005146082000F010F888F80F70BDE8F88FFB
:1024000000000020100000203800002014000020F0
:1024100011000020000C014030B591B00C464FF087
:10242000FE018DF800108DF8011004F103018DF804
:1024300002100E4913006D46097B8DF803108DF8CC
:1024400004004FF0050107D034B122461946681D3B
:10245000FDF768FE641DE1B2FA206854491CC9B258
:102460006846FFF7EBFB11B030BD00000000002014
:10247000010202030405060708090A0B0C0D0E0FE2
:102480001010000000000000000001020304060715
:10249000080900000000010203040000BC24000839
:1024A00000000020380000003E220008F42400084C
:1024B00038000020600500004E22000800000000E7
:1024C000000000000000000000000000000000000C
:1024D00000000000000000000000000008000000F4
:1024E00000000000010000001000000000000000DB
:0424F00000127A005C
:04000005080000ED02
:00000001FF
